:0300000002074FA5
:0C074F00787FE4F6D8FD758167020796FC
:1009ED00758920759850758DFA858D8B758780D298
:0609FD00AFD2ACD28E2245
:080A80008F993099FDC2992203
:0300230002084789
:0B084700C0E0C0F0C0D075D000C007BA
:1008520030984CC298AF99E51FB4020AEF24D0F544
:1008620048751F01803BE51FB4012CEF24D0F51120
:10087200751F00751D00751C00751B00751A00752B
:100882003E00753D00753C00753B00E54875F00A79
:10089200A42511F51E800ABF7407751F028002C2CB
:0108A20099BC
:0908A300D007D0D0D0F0D0E03233
:1006BC0002310000013F00014100014600014700EA
:1006CC00014005014D00011F00011100014800010E
:1006DC001000012064011E0A0442000000000449BD
:1006EC003FA66666040C0000000004370000000002
:1006FC00040800000000042500000000144E000057
:10070C0000000000000000000000000000000000DD
:10071C00000004333F800000042D00000000042979
:10072C0041200000042100000000041A0000000019
:10073C00043B00000000041200000000041600003E
:02074C000000AB
:10042F001209ED120A88120A8F120A03E4F528F551
:10043F0027F526F525F546120997AF3AAE39AD38AF
:10044F00AC37E54625E025E0244EF8120423054697
:10045F00E546C3940540E0E4F546E54014FFE54664
:10046F00C39F5078E4F547C3E540954614FFE54731
:10047F00C39F5063E54725E025E02452F812040A94
:10048F00E54725E025E0244EF81204161202C46059
:10049F00424040E54725E025E0244EF812040A8F3C
:1004AF000B8E0A8D098C08E54725E025E02452F8CC
:1004BF0012040AE54725E025E0244EF8120423AF85
:1004CF000BAE0AAD09AC08E54725E025E02452F84C
:1004DF00120423054780900546020469754601E51D
:1004EF004014FFE546C39F5023AF28AE27AD26AC7F
:1004FF0025E54625E025E0244EF812041612002DBE
:10050F008F288E278D268C25054680D3E54024FE27
:10051F00FDE434FFFCE4120342A804A905AA06ABCC
:10052F0007AF28AE27AD26AC251202278F0F8E0EF0
:10053F008D0D8C0C12037B8F4D12056CAF19AE18FD
:10054F00AD17AC16AB15AA14A913A8121202C460EA
:0D055F00074005C2A002043BD2A002043BED
:100A03005389F0438901758CD8758AF0C2A9D2AF96
:030A1300D28C2260
:03000B000207DB0E
:1007DB00C0E0C0F0C083C082C0D075D000C000C0E4
:1007EB0001C002C003C004C005C006C007758CD889
:1007FB00758AF0AF100510EFC39464402475100098
:10080B00B2A3E54D75F00A842430FF120A80E54D42
:10081B0075F00A84E5F02430FF120A807F20120A5B
:10082B0080D007D006D005D004D003D002D001D0A1
:0C083B0000D0D0D082D083D0F0D0E032CA
:070A8800D288D2A8D2AF22F0
:070A8F00D28AD2AAD2AF22E5
:03000300020907E8
:10090700C0E0C0F0C083C082C0D075D000C000C0B6
:1009170001C002C003C004C005C006C0071200160C
:1009270020B217A2A1B392A1A2A9B392A930A90A92
:100937007F54120A807F3A120A80D007D006D0056A
:10094700D004D003D002D001D000D0D0D082D08341
:05095700D0F0D0E032F9
:03001300020617CB
:10061700C0E0C0F0C083C082C0D075D000C000C0A9
:1006270001C002C003C004C005C006C007120016FF
:1006370012001612001620B361A2A2B392A27F5431
:10064700120A807F5F120A807F73120A807F651209
:100657000A807F74120A80E51E75F00A842430FF31
:10066700120A80E51E75F00A84E5F02430FF120AAD
:10067700807F20120A807F54120A80E54D75F00AA8
:10068700842430FF120A80E54D75F00A84E5F024D2
:1006970030FF120A807F20120A80D007D006D005CB
:1006A700D004D003D002D001D000D0D0D082D083E4
:0506B700D0F0D0E0329C
:0C0016007F017E267D82DDFEDEFADFF633
:0100220022BB
:10099700120A16120A291208AC8F411208AC8F3FAF
:1009A700EFF531E541F532AC31AD32E4120342E403
:1009B700FBFA7980783D12011E8F3A8E398D388C7B
:0209C7003722D5
:10056C00AC1EE4120347AB0FAA0EA90DA80C120087
:10057C00298F248E238D228C21AF3EAE3DAD3CAC19
:10058C003BAB24AA23A922A82112002D8F3E8E3D1D
:10059C008D3C8C3BAB30AA2FA92EA82D12011EC06E
:1005AC0004C005C006C007AF24AE23AD22AC21ABFE
:1005BC0036AA35A934A83312011ED003D002D001BB
:1005CC00D00012002DC004C005C006C007AB1DAA88
:1005DC001CA91BA81AAF24AE23AD22AC21120029F2
:1005EC00AB2CAA2BA92AA82912011ED003D002D009
:1005FC0001D00012002D8F158E148D138C128524B2
:0B060C001D85231C85221B85211A225E
:1009C900E4F562C2B7120A77D2B7E4F56230B7111B
:1009D9000562E562D3940540037F01221200068077
:0309E900EC7F00A0
:0109EC0022E8
:02095C008F62A8
:10095E00E4F563F564F565F566F565F566C2B7050C
:10096E0064E56470020563E5621392B7120A6ED2F3
:10097E00B7E562C313F5620566E56670020565C3E9
:08098E009408E565940040D5D2
:01099600223E
:1008AC00E4F562F563F564F565F566F567F566756F
:1008BC006708C2B70565E56570020564D2B70565C2
:1008CC00E565700205640565E56570020564A2B70F
:1008DC00E433F563C43333335480FFE562C3134F01
:1008EC00F56212000EE567156770021566D3E567B1
:0A08FC009400E566940050BAAF6264
:0109060022CE
:100A16001209C9120A477FCC12095C7F4412095C8D
:030A2600020A3988
:100A29001209C9120A477FCC12095C7FBE02095C10
:040006007F06DFFE94
:01000A0022D3
:04000E007F15DFFE7D
:0100120022CB
:080A6E007F017E20DEFEDFFAAD
:010A7600225D
:080A77007F537E03DEFEDFFA6F
:010A7F002254
:0C0A47007F017E8E7D02DDFEDEFADFF610
:010A53002280
:0C0A54007FA77E887D0FDDFEDEFADFF656
:010A60002273
:0C0A61007F177E987D46DDFEDEFADFF692
:010A6D002266
:0D0A39007F047E747DD6DDFEDEFADFF60060
:010A4600228D
:100026000203E7E86480F8E933E83360110460F01E
:10003600ED33EC337009E8FCE9FDEAFEEBFF220440
:1000460060DED3EB9FEA9EE99DE8C2E78CF0C2F73B
:1000560095F0400CE8CCF8E9CDF9EACEFAEBCFFB07
:100066001203B285D0F05804700320D5B3E80470AB
:10007600075002B2D50203F192D5EC0460F7E4CC46
:10008600C0E0C398F8603B94186008400DD0E0FBD0
:100096000203C9E4FBFAC9FC8028E830E406E4C997
:1000A600FBE4CAFCE830E305E4C9CACBFCE8540724
:1000B6006010F8C3E913F9EA13FAEB13FBEC13FC2F
:1000C600D8F130F52FC3E49CFCEF9BFFEE9AFEEDD2
:1000D60099FDD0E0FBEF4E4D4C701222DB0302037C
:1000E600EEEC2CFCEF33FFEE33FEED33FDED30E7A7
:1000F600EB0203C9EF2BFFEE3AFEED39FDD0E0FB34
:1001060050130BBB00030203F1ED13FDEE13FEEFDC
:0801160013FFEC13FC0203C906
:10011E00EC4D6011E8497017ED33EC3304600DE4DB
:10012E00FCFFFEFD22E933E8330470F80203E71208
:10013E0003B258046009E4CC248150062850090209
:10014E0003F12840030203EEC0E0EB4A7044B9808D
:10015E0006D0E0FB0203DDEF4E701CBD8008EBFF06
:10016E00EAFEE9FD80EBE98DF0A4FEE5F002020760
:10017E00E9CDF9EAFEEBFFEF89F0A4FCE5F0CE89BC
:10018E00F0A42EFFE435F0CD89F0A42DFEE435F079
:10019E008067EF4E7005BD80D780C3EF8BF0A4ACA7
:1001AE00F0EE8BF0A42CFCE435F0F8EF8AF0A42CE2
:1001BE00E5F038FCE433CB8DF0A42CFCE5F03BF8F5
:1001CE00EE8AF0A42CFCE5F038F8E433CF89F0A4E5
:1001DE002CFCE5F038CF3400CE89F0A42FFFE5F0EB
:1001EE003EFEE433C98DF0A42EFEE5F039CD8AF043
:1001FE00A42FFFE5F03EFEE43DFD33D0E0FB5007BB
:10020E000BBB000F0203F1EC2CFCEF33FFEE33FEC1
:06021E00ED33FD0203C9EF
:100224000203F1EC5D046005E8590470030203E77E
:100234001203B2580460F6EC4860F2EC7004FDFE60
:10024400FF22C860DB2481C85009C39860025006AD
:100254000203EE9850CAF582E9294B4A7005AB8235
:100264000203DD75F0007C1A7880C3EF9BEE9AEDF3
:1002740099400DC3EF9BFFEE9AFEED99FDE842F025
:10028400DC23ACF0D0E0FFD0E0FED0E0FDAB822078
:10029400E7101BEB60BAEC2CFCEF33FFEE33FEED02
:1002A40033FD0203C9E803F830E705C0F075F00038
:1002B400EF2FFFEE33FEED33FD40B830E7C280AAE6
:1002C40074F8CC6480CCC86480C8F58204604FC3E1
:1002D400EB9FF5F0EA9E42F0E99D42F0E89C45F080
:1002E400603C501DE5825FFFE582D313CB5BCBF40A
:1002F4002B5582FB50280ABA002409B90020088033
:100304001DE5825BFBE582D313CF5FCFF4C3132FCC
:100314005582FF50090EBE00050DBD00010CC3EB54
:100324009FF5F0EA9E42F0E99D42F0E89C45F060BA
:0903340007CC4820E701B3EC22DC
:10033D0075F020800E75F010800575F0087D007E3B
:10034D00007F003392D530D5031203FCEC334010FF
:10035D00EF33FFEE33FEED33FDEC33FCD5F0ED2244
:0E036D00E5F0247EA2D513CC92E7CDCEFF2280
:10037B00EDD2E7CD33EC3392D524814006E4FFFE7A
:10038B00FDFC22FCE4CFCECDCC24E0501174FF80D9
:10039B00EDC3CC13CCCD13CDCE13CECF13CF047076
:0703AB00F030D5DE0203FC77
:1003B200E9D2E7C933E833F892D5EDD2E7CD33EC91
:0703C20033FC5002B2D5220A
:1003C900EC30E7100FBF000C0EBE00080DBD000495
:1003D9000BEB6014A2D5EB13FCED92E7FD2274FF41
:1003E900FCFDFEFF22E480F8A2D574FF13FC7D809A
:0303F900E480EFAE
:10075B0002042FE493A3F8E493A34003F68001F281
:10076B0008DFF48029E493A3F85407240CC8C3339F
:10077B00C4540F4420C8834004F456800146F6DF6E
:10078B00E4800B01020408102040809006BCE47E3C
:10079B00019360BCA3FF543F30E509541FFEE49363
:1007AB00A360010ECF54C025E060A840B8E493A32A
:1007BB00FAE493A3F8E493A3C8C582C8CAC583CA55
:1007CB00F0A3C8C582C8CAC583CADFE9DEE780BE0D
:01074E0000AA
:0E03FC00C3E49FFFE49EFEE49DFDE49CFC2212
:0C040A00E6FC08E6FD08E6FE08E6FF221E
:0D041600E6FB08E6F908E6FA08E6CBF82256
:0C042300ECF608EDF608EEF608EFF62205
:00000001FF
